:100000000C9434000C9446000C9448000C94460068
:100010000C9446000C9446000C9446000C94460048
:100020000C9446000C9446000C9446000C94460038
:100030000C9446000C9446000C9446000C94460028
:100040000C9446000C9446000C9446000C94460018
:100050000C9446000C9446000C9446000C94460008
:100060000C9446000C94460011241FBECFEFD8E03C
:10007000DEBFCDBF21E0A0E0B1E001C01D92A23003
:10008000B207E1F70E9460000C947E000C9400001F
:100090001F920F920FB60F9211248F939F9395B1D9
:1000A00081E0892785B981E090E0909301018093F8
:1000B00000019F918F910F900FBE0F901F90189588
:1000C00081E084B985B988E08BB982E08DBB8091ED
:1000D000000190910101892B11F47894F8CFF894E4
:1000E0002FEF87EA91E6215080409040E1F700C071
:1000F00000001092010110920001E9CFF894FFCFA7
:00000001FF
