:100000000EC01EC01CC01BC01AC019C018C017C02B
:1000100016C015C014C013C012C011C010C01124E6
:100020001FBECFE5D2E0DEBFCDBF20E0A0E6B0E04E
:1000300001C01D92A236B207E1F71AD037C0E0CF57
:100040001F920F920FB60F9211248F939F9398B324
:1000500081E0892788BB81E090E0909361008093E4
:1000600060009F918F910F900FBE0F901F90189579
:1000700081E087BB88BB84E088BB80E48BBF809134
:10008000600090916100892B11F47894F8CFF89476
:100090002FE78AE196E0215080409040E1F700C0D0
:1000A00000001092610010926000E9CFF894FFCF39
:00000001FF
