:100000000C9434000C943E000C943E000C943E0082
:100010000C943E000C943E000C943E000C943E0068
:100020000C943E000C943E000C943E000C94400056
:100030000C943E000C943E000C943E000C943E0048
:100040000C943E000C943E000C943E000C943E0038
:100050000C943E000C943E000C943E000C943E0028
:100060000C943E000C943E0011241FBECFEFD8E04C
:10007000DEBFCDBF0E9452000C9465000C940000BE
:100080001F920F920FB60F9211248F939F9385B1F9
:1000900090E2892785B99F918F910F900FBE0F90A5
:1000A0001F90189580E284B988E08093800084E0F6
:1000B0008093810084E294EF90938900809388007C
:0E00C00082E080936F007894FFCFF894FFCF1A
:00000001FF
