:100000000EC01DC01CC01BC01AC019C018C017C02C
:1000100016C015C015C013C012C011C010C01124E5
:100020001FBECFE5D2E0DEBFCDBF20E0A0E6B0E04E
:1000300001C01D92A236B207E1F726D030C0E0CF52
:100040001F920F920FB60F9211242F938F939F93AD
:10005000809160009091610001969093610080937F
:100060006000853F914044F088B391E0892788BBC8
:1000700010926100109260009F918F912F910F90CC
:100080000FBE0F901F90189581E087BB82E08ABD5C
:1000900083BF8AEF89BD80E189BF7894FFCFF89450
:0200A000FFCF90
:00000001FF
