:100000000C9434000C9446000C9446000C9446006A
:100010000C9446000C9446000C9446000C94460048
:100020000C9446000C9446000C9446000C94460038
:100030000C9446000C9446000C9446000C94460028
:100040000C9446000C9446000C946B000C944600F3
:100050000C9446000C9446000C9446000C94460008
:100060000C9446000C94460011241FBECFEFD8E03C
:10007000DEBFCDBF21E0A0E0B1E001C01D92A238FB
:10008000B207E1F70E948E000C94A6000C940000C9
:10009000E091010180910001E81729F0F0E0EE5FA6
:1000A000FE4F8081089580E0089590910101809134
:1000B0000001981771F0E92FF0E0EE5FFE4F8081AC
:1000C0009F5F97FD03C09093010108951092010175
:1000D000089580E008951F920F920FB60F92112499
:1000E0008F939F93EF93FF93809100019091C600AF
:1000F000E82FF0E0EE5FFE4F90838F5F87FD03C037
:100100008093000102C010920001FF91EF919F9136
:100110008F910F900FBE0F901F9018951092C500F1
:1001200087E68093C40080E98093C10086E08093D5
:10013000C20081E084B978940E945500813311F4A3
:10014000289AFACF8033C1F72898F6CFF894FFCFDA
:00000001FF
