:100000000C9434000C943E000C943E000C943E0082
:100010000C943E000C943E000C943E000C943E0068
:100020000C943E000C943E000C943E000C94400056
:100030000C943E000C943E000C943E000C943E0048
:100040000C943E000C943E000C943E000C943E0038
:100050000C943E000C943E000C943E000C943E0028
:100060000C943E000C943E0011241FBECFEFD8E04C
:10007000DEBFCDBF0E944D000C9460000C940000C8
:100080008F938FB78F939F9385B190E2892785B91E
:100090009F918F918FBF8F91189580E284B988E0EE
:1000A0008093800084E0809381008AE698E19093B9
:1000B00089008093880082E080936F007894FFCF5E
:0400C000F894FFCFE2
:00000001FF
